{
  "_format": "hh-sol-artifact-1",
  "contractName": "DswapBuild",
  "sourceName": "contracts/governance/test/DswapBuild.sol",
  "abi": [
    {
      "inputs": [
        {
          "internalType": "address",
          "name": "_stake",
          "type": "address"
        },
        {
          "internalType": "string",
          "name": "_name",
          "type": "string"
        },
        {
          "internalType": "string",
          "name": "_symbol",
          "type": "string"
        },
        {
          "internalType": "uint256",
          "name": "_initialSupply",
          "type": "uint256"
        },
        {
          "internalType": "uint256",
          "name": "_devSupplyPercent",
          "type": "uint256"
        },
        {
          "internalType": "uint256",
          "name": "_basisValue",
          "type": "uint256"
        },
        {
          "internalType": "string",
          "name": "_tokenIconIPFS",
          "type": "string"
        }
      ],
      "stateMutability": "nonpayable",
      "type": "constructor"
    },
    {
      "anonymous": false,
      "inputs": [
        {
          "indexed": true,
          "internalType": "address",
          "name": "owner",
          "type": "address"
        },
        {
          "indexed": true,
          "internalType": "address",
          "name": "spender",
          "type": "address"
        },
        {
          "indexed": false,
          "internalType": "uint256",
          "name": "value",
          "type": "uint256"
        }
      ],
      "name": "Approval",
      "type": "event"
    },
    {
      "anonymous": false,
      "inputs": [
        {
          "indexed": false,
          "internalType": "uint256",
          "name": "tokenFeeAmount",
          "type": "uint256"
        },
        {
          "indexed": false,
          "internalType": "uint256",
          "name": "ethFeeAmount",
          "type": "uint256"
        }
      ],
      "name": "FeeAccumulated",
      "type": "event"
    },
    {
      "anonymous": false,
      "inputs": [
        {
          "indexed": true,
          "internalType": "address",
          "name": "recipient",
          "type": "address"
        },
        {
          "indexed": false,
          "internalType": "uint256",
          "name": "tokenAmount",
          "type": "uint256"
        },
        {
          "indexed": false,
          "internalType": "uint256",
          "name": "ethAmount",
          "type": "uint256"
        }
      ],
      "name": "FeesWithdrawn",
      "type": "event"
    },
    {
      "anonymous": false,
      "inputs": [
        {
          "indexed": false,
          "internalType": "uint256",
          "name": "newEthReserve",
          "type": "uint256"
        },
        {
          "indexed": false,
          "internalType": "uint256",
          "name": "newTokenReserve",
          "type": "uint256"
        }
      ],
      "name": "ReservesUpdated",
      "type": "event"
    },
    {
      "anonymous": false,
      "inputs": [
        {
          "indexed": true,
          "internalType": "address",
          "name": "buyer",
          "type": "address"
        },
        {
          "indexed": false,
          "internalType": "uint256",
          "name": "ethAmount",
          "type": "uint256"
        },
        {
          "indexed": false,
          "internalType": "uint256",
          "name": "tokenAmount",
          "type": "uint256"
        }
      ],
      "name": "TokensPurchased",
      "type": "event"
    },
    {
      "anonymous": false,
      "inputs": [
        {
          "indexed": true,
          "internalType": "address",
          "name": "seller",
          "type": "address"
        },
        {
          "indexed": false,
          "internalType": "uint256",
          "name": "tokenAmount",
          "type": "uint256"
        },
        {
          "indexed": false,
          "internalType": "uint256",
          "name": "ethAmount",
          "type": "uint256"
        }
      ],
      "name": "TokensSold",
      "type": "event"
    },
    {
      "anonymous": false,
      "inputs": [
        {
          "indexed": true,
          "internalType": "address",
          "name": "from",
          "type": "address"
        },
        {
          "indexed": true,
          "internalType": "address",
          "name": "to",
          "type": "address"
        },
        {
          "indexed": false,
          "internalType": "uint256",
          "name": "value",
          "type": "uint256"
        }
      ],
      "name": "Transfer",
      "type": "event"
    },
    {
      "inputs": [],
      "name": "DEV_SUPPLY_PERCENT",
      "outputs": [
        {
          "internalType": "uint256",
          "name": "",
          "type": "uint256"
        }
      ],
      "stateMutability": "view",
      "type": "function"
    },
    {
      "inputs": [],
      "name": "INITIAL_SUPPLY",
      "outputs": [
        {
          "internalType": "uint256",
          "name": "",
          "type": "uint256"
        }
      ],
      "stateMutability": "view",
      "type": "function"
    },
    {
      "inputs": [],
      "name": "accumulatedFeesInETH",
      "outputs": [
        {
          "internalType": "uint256",
          "name": "",
          "type": "uint256"
        }
      ],
      "stateMutability": "view",
      "type": "function"
    },
    {
      "inputs": [],
      "name": "accumulatedFeesInToken",
      "outputs": [
        {
          "internalType": "uint256",
          "name": "",
          "type": "uint256"
        }
      ],
      "stateMutability": "view",
      "type": "function"
    },
    {
      "inputs": [
        {
          "internalType": "address",
          "name": "owner",
          "type": "address"
        },
        {
          "internalType": "address",
          "name": "spender",
          "type": "address"
        }
      ],
      "name": "allowance",
      "outputs": [
        {
          "internalType": "uint256",
          "name": "",
          "type": "uint256"
        }
      ],
      "stateMutability": "view",
      "type": "function"
    },
    {
      "inputs": [
        {
          "internalType": "address",
          "name": "spender",
          "type": "address"
        },
        {
          "internalType": "uint256",
          "name": "amount",
          "type": "uint256"
        }
      ],
      "name": "approve",
      "outputs": [
        {
          "internalType": "bool",
          "name": "",
          "type": "bool"
        }
      ],
      "stateMutability": "nonpayable",
      "type": "function"
    },
    {
      "inputs": [
        {
          "internalType": "address",
          "name": "account",
          "type": "address"
        }
      ],
      "name": "balanceOf",
      "outputs": [
        {
          "internalType": "uint256",
          "name": "",
          "type": "uint256"
        }
      ],
      "stateMutability": "view",
      "type": "function"
    },
    {
      "inputs": [],
      "name": "basisValue",
      "outputs": [
        {
          "internalType": "uint256",
          "name": "",
          "type": "uint256"
        }
      ],
      "stateMutability": "view",
      "type": "function"
    },
    {
      "inputs": [
        {
          "internalType": "uint256",
          "name": "amount",
          "type": "uint256"
        }
      ],
      "name": "burn",
      "outputs": [],
      "stateMutability": "nonpayable",
      "type": "function"
    },
    {
      "inputs": [
        {
          "internalType": "address",
          "name": "account",
          "type": "address"
        },
        {
          "internalType": "uint256",
          "name": "amount",
          "type": "uint256"
        }
      ],
      "name": "burnFrom",
      "outputs": [],
      "stateMutability": "nonpayable",
      "type": "function"
    },
    {
      "inputs": [
        {
          "internalType": "uint256",
          "name": "minTokenAmount",
          "type": "uint256"
        }
      ],
      "name": "buyTokens",
      "outputs": [],
      "stateMutability": "payable",
      "type": "function"
    },
    {
      "inputs": [],
      "name": "claimCooldown",
      "outputs": [
        {
          "internalType": "uint256",
          "name": "",
          "type": "uint256"
        }
      ],
      "stateMutability": "view",
      "type": "function"
    },
    {
      "inputs": [],
      "name": "claimFees",
      "outputs": [],
      "stateMutability": "nonpayable",
      "type": "function"
    },
    {
      "inputs": [],
      "name": "decimals",
      "outputs": [
        {
          "internalType": "uint8",
          "name": "",
          "type": "uint8"
        }
      ],
      "stateMutability": "view",
      "type": "function"
    },
    {
      "inputs": [
        {
          "internalType": "address",
          "name": "spender",
          "type": "address"
        },
        {
          "internalType": "uint256",
          "name": "subtractedValue",
          "type": "uint256"
        }
      ],
      "name": "decreaseAllowance",
      "outputs": [
        {
          "internalType": "bool",
          "name": "",
          "type": "bool"
        }
      ],
      "stateMutability": "nonpayable",
      "type": "function"
    },
    {
      "inputs": [],
      "name": "ethReserve",
      "outputs": [
        {
          "internalType": "uint256",
          "name": "",
          "type": "uint256"
        }
      ],
      "stateMutability": "view",
      "type": "function"
    },
    {
      "inputs": [],
      "name": "getAccumulatedFeesInETH",
      "outputs": [
        {
          "internalType": "uint256",
          "name": "",
          "type": "uint256"
        }
      ],
      "stateMutability": "view",
      "type": "function"
    },
    {
      "inputs": [],
      "name": "getAccumulatedFeesInToken",
      "outputs": [
        {
          "internalType": "uint256",
          "name": "",
          "type": "uint256"
        }
      ],
      "stateMutability": "view",
      "type": "function"
    },
    {
      "inputs": [],
      "name": "getCurrentPrice",
      "outputs": [
        {
          "internalType": "uint256",
          "name": "",
          "type": "uint256"
        }
      ],
      "stateMutability": "view",
      "type": "function"
    },
    {
      "inputs": [
        {
          "internalType": "uint256",
          "name": "tokenAmount",
          "type": "uint256"
        }
      ],
      "name": "getEstimatedETHForTokens",
      "outputs": [
        {
          "internalType": "uint256",
          "name": "",
          "type": "uint256"
        }
      ],
      "stateMutability": "view",
      "type": "function"
    },
    {
      "inputs": [
        {
          "internalType": "uint256",
          "name": "ethAmount",
          "type": "uint256"
        }
      ],
      "name": "getEstimatedTokensForETH",
      "outputs": [
        {
          "internalType": "uint256",
          "name": "",
          "type": "uint256"
        }
      ],
      "stateMutability": "view",
      "type": "function"
    },
    {
      "inputs": [],
      "name": "getEthReserve",
      "outputs": [
        {
          "internalType": "uint256",
          "name": "",
          "type": "uint256"
        }
      ],
      "stateMutability": "view",
      "type": "function"
    },
    {
      "inputs": [],
      "name": "getReserves",
      "outputs": [
        {
          "internalType": "uint256",
          "name": "currentEthReserve",
          "type": "uint256"
        },
        {
          "internalType": "uint256",
          "name": "currentTokenReserve",
          "type": "uint256"
        }
      ],
      "stateMutability": "view",
      "type": "function"
    },
    {
      "inputs": [],
      "name": "getTokenIconIPFS",
      "outputs": [
        {
          "internalType": "string",
          "name": "",
          "type": "string"
        }
      ],
      "stateMutability": "view",
      "type": "function"
    },
    {
      "inputs": [],
      "name": "getTokenReserve",
      "outputs": [
        {
          "internalType": "uint256",
          "name": "",
          "type": "uint256"
        }
      ],
      "stateMutability": "view",
      "type": "function"
    },
    {
      "inputs": [
        {
          "internalType": "address",
          "name": "spender",
          "type": "address"
        },
        {
          "internalType": "uint256",
          "name": "addedValue",
          "type": "uint256"
        }
      ],
      "name": "increaseAllowance",
      "outputs": [
        {
          "internalType": "bool",
          "name": "",
          "type": "bool"
        }
      ],
      "stateMutability": "nonpayable",
      "type": "function"
    },
    {
      "inputs": [],
      "name": "lastClaimTime",
      "outputs": [
        {
          "internalType": "uint256",
          "name": "",
          "type": "uint256"
        }
      ],
      "stateMutability": "view",
      "type": "function"
    },
    {
      "inputs": [],
      "name": "name",
      "outputs": [
        {
          "internalType": "string",
          "name": "",
          "type": "string"
        }
      ],
      "stateMutability": "view",
      "type": "function"
    },
    {
      "inputs": [
        {
          "internalType": "uint256",
          "name": "tokenAmount",
          "type": "uint256"
        },
        {
          "internalType": "uint256",
          "name": "minEthAmount",
          "type": "uint256"
        }
      ],
      "name": "sellTokens",
      "outputs": [],
      "stateMutability": "nonpayable",
      "type": "function"
    },
    {
      "inputs": [],
      "name": "stake",
      "outputs": [
        {
          "internalType": "address",
          "name": "",
          "type": "address"
        }
      ],
      "stateMutability": "view",
      "type": "function"
    },
    {
      "inputs": [],
      "name": "symbol",
      "outputs": [
        {
          "internalType": "string",
          "name": "",
          "type": "string"
        }
      ],
      "stateMutability": "view",
      "type": "function"
    },
    {
      "inputs": [],
      "name": "tokenIconIPFS",
      "outputs": [
        {
          "internalType": "string",
          "name": "",
          "type": "string"
        }
      ],
      "stateMutability": "view",
      "type": "function"
    },
    {
      "inputs": [],
      "name": "tokenReserve",
      "outputs": [
        {
          "internalType": "uint256",
          "name": "",
          "type": "uint256"
        }
      ],
      "stateMutability": "view",
      "type": "function"
    },
    {
      "inputs": [],
      "name": "totalSupply",
      "outputs": [
        {
          "internalType": "uint256",
          "name": "",
          "type": "uint256"
        }
      ],
      "stateMutability": "view",
      "type": "function"
    },
    {
      "inputs": [
        {
          "internalType": "address",
          "name": "to",
          "type": "address"
        },
        {
          "internalType": "uint256",
          "name": "amount",
          "type": "uint256"
        }
      ],
      "name": "transfer",
      "outputs": [
        {
          "internalType": "bool",
          "name": "",
          "type": "bool"
        }
      ],
      "stateMutability": "nonpayable",
      "type": "function"
    },
    {
      "inputs": [
        {
          "internalType": "address",
          "name": "from",
          "type": "address"
        },
        {
          "internalType": "address",
          "name": "to",
          "type": "address"
        },
        {
          "internalType": "uint256",
          "name": "amount",
          "type": "uint256"
        }
      ],
      "name": "transferFrom",
      "outputs": [
        {
          "internalType": "bool",
          "name": "",
          "type": "bool"
        }
      ],
      "stateMutability": "nonpayable",
      "type": "function"
    }
  ],
  "bytecode": "0x6040608081523462000723576200214390813803806200001f8162000728565b938439820160e08382031262000723578251926001600160a01b0384168403620007235760208101516001600160401b038111620007235782620000659183016200074e565b818401519094906001600160401b038111620007235783620000899184016200074e565b9060608301519160808401519360a08101519560c082015160018060401b0381116200072357620000bb92016200074e565b875190976001600160401b038211620003fa5760035490600182811c9216801562000718575b6020831014620003d95781601f849311620006a3575b50602090601f831160011462000618576000926200060c575b50508160011b916000199060031b1c1916176003555b8051906001600160401b038211620003fa5760045490600182811c9216801562000601575b6020831014620003d95781601f8493116200058c575b50602090601f8311600114620004fd57600092620004f1575b50508160011b916000199060031b1c1916176004555b600160055562015180600f556001600160a01b03811615620004ad57606483116200045f578315620004105760018060a01b031660018060a01b0319600b541617600b55600655606481029080820460641490151715620002e257600a5560095581516001600160401b038111620003fa57601054600181811c91168015620003ef575b6020821014620003d957601f81116200036f575b50602092601f8211600114620003045792819293600092620002f8575b50508160011b916000199060031b1c1916176010555b600654600a54808202908282041482151715620002e2576127109004808203918211620002e25781620002bd8492620002b67f5141ecc84a35c12ca2bf76bb33d393bd2fc22f906da0743534beef4ae63c6c8e9530620007c0565b33620007c0565b80600855600954908160075582519182526020820152a1516118da9081620008698239f35b634e487b7160e01b600052601160045260246000fd5b01519050388062000245565b601f19821693601060005260206000209160005b8681106200035657508360019596106200033c575b505050811b016010556200025b565b015160001960f88460031b161c191690553880806200032d565b9192602060018192868501518155019401920162000318565b60106000527f1b6847dc741a1b0cd08d278845f9d819d87b734759afb55fe2de5cb82a9ae672601f830160051c81019160208410620003ce575b601f0160051c01905b818110620003c1575062000228565b60008155600101620003b2565b9091508190620003a9565b634e487b7160e01b600052602260045260246000fd5b90607f169062000214565b634e487b7160e01b600052604160045260246000fd5b845162461bcd60e51b815260206004820152602260248201527f42617369732076616c7565206d7573742062652067726561746572207468616e604482015261020360f41b6064820152608490fd5b845162461bcd60e51b815260206004820152602160248201527f44657620737570706c792070657263656e74206d757374206265203c3d2031306044820152600360fc1b6064820152608490fd5b845162461bcd60e51b815260206004820152601560248201527f496e76616c6964207374616b65206164647265737300000000000000000000006044820152606490fd5b0151905038806200017a565b6004600090815293507f8a35acfbc15ff81a39ae7d344fd709f28e8600b4aa8c65c6b64bfe7fe36bd19b91905b601f198416851062000570576001945083601f1981161062000556575b505050811b0160045562000190565b015160001960f88460031b161c1916905538808062000547565b818101518355602094850194600190930192909101906200052a565b60046000529091507f8a35acfbc15ff81a39ae7d344fd709f28e8600b4aa8c65c6b64bfe7fe36bd19b601f840160051c81019160208510620005f6575b90601f859493920160051c01905b818110620005e6575062000161565b60008155849350600101620005d7565b9091508190620005c9565b91607f16916200014b565b01519050388062000110565b600360009081527fc2575a0e9e593c00f959f8c92f12db2869c3395a3b0502d05e2516446f71f85b9350601f198516905b8181106200068a575090846001959493921062000670575b505050811b0160035562000126565b015160001960f88460031b161c1916905538808062000661565b9293602060018192878601518155019501930162000649565b60036000529091507fc2575a0e9e593c00f959f8c92f12db2869c3395a3b0502d05e2516446f71f85b601f840160051c810191602085106200070d575b90601f859493920160051c01905b818110620006fd5750620000f7565b60008155849350600101620006ee565b9091508190620006e0565b91607f1691620000e1565b600080fd5b6040519190601f01601f191682016001600160401b03811183821017620003fa57604052565b919080601f84011215620007235782516001600160401b038111620003fa5760209062000784601f8201601f1916830162000728565b92818452828287010111620007235760005b818110620007ac57508260009394955001015290565b858101830151848201840152820162000796565b6001600160a01b0316908115620008235760025490808201809211620002e25760207fddf252ad1be2c89b69c2b068fc378daa952ba7f163c4a11628f55a4df523b3ef9160009360025584845283825260408420818154019055604051908152a3565b60405162461bcd60e51b815260206004820152601f60248201527f45524332303a206d696e7420746f20746865207a65726f2061646472657373006044820152606490fdfe608060408181526004918236101561001657600080fd5b600092833560e01c91826306fdde03146110f9575081630902f1ac146110d4578163095ea7b3146110aa57816318160ddd1461108b5781631c99972e14610fea57816323b872dd14610fad5781632ff2e9dc14610f8e578163313ce56714610f725781633610724e14610d775781633950935114610d275781633a4b66f114610cfe57816342966c6814610ce05781634d9cc41f146108e757816370a0823114610ca957816371b7e63814610bd257816375a1695114610bb3578163772fb98c14610b3357816379cc679014610b005781638a9118c0146105dd57816395d89b4114610a1a5781639de00be3146109fb578163a457c2d714610956578163a9059cbb14610925578163c21bae0c14610906578163c4c4db63146108e7578163cbcb3171146108c8578163d27ca38e14610844578163d294f093146105fc578163d62ccb3f146105dd578163dd62ed3e14610594578163eb91d37e146104bc578163ed9772b61461022c57508063f1d9f88b1461020e578063f7817560146101f0578063f7cbf348146101d25763fdea3657146101b157600080fd5b346101ce57816003193601126101ce57602090600f549051908152f35b5080fd5b50346101ce57816003193601126101ce57602090600d549051908152f35b50346101ce57816003193601126101ce576020906009549051908152f35b50346101ce57816003193601126101ce576020906008549051908152f35b8383346101ce57806003193601126101ce57823561024861170a565b80156104795733835260208381528183852054106104435760075491600854906009548411156103ef5761027d8483836117e2565b61028b6024358210156116c4565b8047106103b057601e8202828104601e0361039d57958793819695937f5141ecc84a35c12ca2bf76bb33d393bd2fc22f906da0743534beef4ae63c6c8e936103376127107f238e15ceb1545422ceb471f30155800a560f4d753e5f661f28aedf08f8d4ded59b0498610307836103018c876116b7565b926116b7565b600755600b54610322908b906001600160a01b03163361126f565b61032e8a600c5461124c565b600c5533611577565b6103508780808085335af161034a611760565b506117a0565b8351918252858201527f2dcf9433d75db0d8b1c172641f85e319ffe4ad22e108a95d1847ceb906e5195d833392a260075490825191825284820152a18351928352820152a1600160055580f35b634e487b7160e01b885260118952602488fd5b855162461bcd60e51b815280890185905260196024820152784e6f7420656e6f7567682045544820696e207265736572766560381b6044820152606490fd5b845162461bcd60e51b8152808801849052602860248201527f526573657276652069732062656c6f7720746865206d696e696d756d2062617360448201526769732076616c756560c01b6064820152608490fd5b8460649184519162461bcd60e51b835282015260116024820152704e6f7420656e6f75676820746f6b656e7360781b6044820152fd5b815162461bcd60e51b8152602081860152601c60248201527f596f75206e65656420746f2073656c6c20736f6d6520746f6b656e73000000006044820152606490fd5b8284346105915780600319360112610591576008549081156105565760075490811561051d57670de0b6b3a76400008083029283040361050a576020846105038585611697565b9051908152f35b634e487b7160e01b815260118552602490fd5b835162461bcd60e51b815260208187015260136024820152724554482072657365727665206973207a65726f60681b6044820152606490fd5b825162461bcd60e51b81526020818601526015602482015274546f6b656e2072657365727665206973207a65726f60581b6044820152606490fd5b80fd5b5050346101ce57806003193601126101ce57806020926105b26111e3565b6105ba6111fe565b6001600160a01b0391821683526001865283832091168252845220549051908152f35b5050346101ce57816003193601126101ce576020906007549051908152f35b9190503461084057826003193601126108405761061761170a565b610626600e54600f549061124c565b42106107fd57600b546001600160a01b03908116929083156107c257600c5491600d549442600e55836106b8575b5050907fdeb5099d7943aa2b4c1142e5d53d2f7636aa8f7bd130ec79816f151572bcdf45929184610698575b600b54169382519182526020820152a2600160055580f35b85600d556106b3868080808986600b54165af161034a611760565b610680565b836106c79188600c553061126f565b81600b541684516020810190630c71b04560e31b8252856024820152602481526060810181811067ffffffffffffffff8211176107af57875251889283929083905af1610712611760565b81610773575b50156107245780610654565b608490602085519162461bcd60e51b83528201526024808201527f4661696c656420746f20757064617465207374616b6520746f6b656e207265736044820152636572766560e01b6064820152fd5b8051801592508215610788575b505038610718565b81925090602091810103126107ab576020015180151581036107ab573880610780565b8680fd5b634e487b7160e01b8a526041855260248afd5b506020606492519162461bcd60e51b8352820152601560248201527414dd185ad9481859191c995cdcc81b9bdd081cd95d605a1b6044820152fd5b906020606492519162461bcd60e51b8352820152601e60248201527f436f6f6c646f776e20706572696f6420686173206e6f742070617373656400006044820152fd5b8280fd5b9050823461059157602036600319011261059157508035908115610876576020836105038460075490600854906117e2565b608490602084519162461bcd60e51b8352820152602660248201527f546f6b656e20616d6f756e74206d7573742062652067726561746572207468616044820152656e207a65726f60d01b6064820152fd5b5050346101ce57816003193601126101ce576020906008549051908152f35b5050346101ce57816003193601126101ce57602090600c549051908152f35b5050346101ce57816003193601126101ce57602090600e549051908152f35b5050346101ce57806003193601126101ce5760209061094f6109456111e3565b602435903361126f565b5160018152f35b905082346105915782600319360112610591576109716111e3565b918360243592338152600160205281812060018060a01b03861682526020522054908282106109aa5760208561094f85850387336113dd565b608490602086519162461bcd60e51b8352820152602560248201527f45524332303a2064656372656173656420616c6c6f77616e63652062656c6f77604482015264207a65726f60d81b6064820152fd5b5050346101ce57816003193601126101ce57602090600d549051908152f35b8383346101ce57816003193601126101ce57805191809380549160019083821c92828516948515610af6575b6020958686108114610ae357858952908115610abf5750600114610a84575b610a808787610a76828c0383611214565b519182918261119a565b0390f35b9080949750528583205b828410610aac5750505082610a8094610a7692820101948680610a65565b8054868501880152928601928101610a8e565b60ff19168887015250505050151560051b8301019250610a7682610a808680610a65565b634e487b7160e01b845260228352602484fd5b93607f1693610a46565b5050346101ce5736600319011261059157610b30610b1c6111e3565b60243590610b2b8233836114df565b611577565b80f35b9050823461059157602036600319011261059157508035908115610b645760208361050384600754600854916117e2565b608490602084519162461bcd60e51b83528201526024808201527f45544820616d6f756e74206d7573742062652067726561746572207468616e206044820152637a65726f60e01b6064820152fd5b5050346101ce57816003193601126101ce57602090600a549051908152f35b91905034610840578260031936011261084057805191836010549060019082821c928281168015610c9f575b6020958686108214610c8c5750848852908115610c6a5750600114610c2f575b610a808686610a76828b0383611214565b929550601083528583205b828410610c575750505082610a8094610a76928201019438610c1e565b8054868501880152928601928101610c3a565b60ff191687860152505050151560051b8301019250610a7682610a8038610c1e565b634e487b7160e01b845260229052602483fd5b93607f1693610bfe565b5050346101ce5760203660031901126101ce5760209181906001600160a01b03610cd16111e3565b16815280845220549051908152f35b8390346101ce5760203660031901126101ce57610b30903533611577565b5050346101ce57816003193601126101ce57600b5490516001600160a01b039091168152602090f35b5050346101ce57806003193601126101ce5761094f602092610d70610d4a6111e3565b338352600186528483206001600160a01b0382168452865291849020546024359061124c565b90336113dd565b838360208060031936011261084057610d8e61170a565b3415610f3457600754600854948515610f0057601e3402348104601e03610eed57612710900491610dbf83346116b7565b90610dcb8882846117e2565b92610dd981358510156116c4565b888411610eaa57507f238e15ceb1545422ceb471f30155800a560f4d753e5f661f28aedf08f8d4ded59697610e12610e1a93859361124c565b6007556116b7565b600855610e2881333061126f565b610e3482600d5461124c565b600d55835190348252838201527f8fafebcaf9d154343dad25669bfa277f4fbacd7ac6b0c4fed522580e040a0f33843392a27f5141ecc84a35c12ca2bf76bb33d393bd2fc22f906da0743534beef4ae63c6c8e83600754600854825191825285820152a1825191858352820152a1600160055580f35b865162461bcd60e51b8152908101869052601c60248201527f4e6f7420656e6f75676820746f6b656e7320696e2072657365727665000000006044820152606490fd5b634e487b7160e01b865260118252602486fd5b835162461bcd60e51b8152908101839052600e60248201526d52657365727665206973206c6f7760901b6044820152606490fd5b8390606492519162461bcd60e51b835282015260196024820152780b2deea40dccacac840e8de40e6cadcc840e6dedaca408aa89603b1b6044820152fd5b5050346101ce57816003193601126101ce576020905160128152f35b5050346101ce57816003193601126101ce576020906006549051908152f35b5050346101ce5760603660031901126101ce5760209061094f610fce6111e3565b610fd66111fe565b60443591610fe58333836114df565b61126f565b91905034610840578260031936011261084057805191836010549060019082821c928281168015611081575b6020958686108214610c8c5750848852908115610c6a575060011461104657610a808686610a76828b0383611214565b929550601083528583205b82841061106e5750505082610a8094610a76928201019438610c1e565b8054868501880152928601928101611051565b93607f1693611016565b5050346101ce57816003193601126101ce576020906002549051908152f35b5050346101ce57806003193601126101ce5760209061094f6110ca6111e3565b60243590336113dd565b8284346105915780600319360112610591575060075460085482519182526020820152f35b92915034611196578360031936011261119657600354600181811c918690828116801561118c575b6020958686108214610c8c5750848852908115610c6a575060011461115157610a808686610a76828b0383611214565b929550600383528583205b8284106111795750505082610a8094610a76928201019438610c1e565b805486850188015292860192810161115c565b93607f1693611121565b8380fd5b6020808252825181830181905290939260005b8281106111cf57505060409293506000838284010152601f8019910116010190565b8181018601518482016040015285016111ad565b600435906001600160a01b03821682036111f957565b600080fd5b602435906001600160a01b03821682036111f957565b90601f8019910116810190811067ffffffffffffffff82111761123657604052565b634e487b7160e01b600052604160045260246000fd5b9190820180921161125957565b634e487b7160e01b600052601160045260246000fd5b6001600160a01b0390811691821561138a5716918215611339576000828152806020526040812054918083106112e557604082827fddf252ad1be2c89b69c2b068fc378daa952ba7f163c4a11628f55a4df523b3ef958760209652828652038282205586815220818154019055604051908152a3565b60405162461bcd60e51b815260206004820152602660248201527f45524332303a207472616e7366657220616d6f756e7420657863656564732062604482015265616c616e636560d01b6064820152608490fd5b60405162461bcd60e51b815260206004820152602360248201527f45524332303a207472616e7366657220746f20746865207a65726f206164647260448201526265737360e81b6064820152608490fd5b60405162461bcd60e51b815260206004820152602560248201527f45524332303a207472616e736665722066726f6d20746865207a65726f206164604482015264647265737360d81b6064820152608490fd5b6001600160a01b0390811691821561148e571691821561143e5760207f8c5be1e5ebec7d5bd14f71427d1e84f3dd0314c0f7b2291e5b200ac8c7c3b925918360005260018252604060002085600052825280604060002055604051908152a3565b60405162461bcd60e51b815260206004820152602260248201527f45524332303a20617070726f766520746f20746865207a65726f206164647265604482015261737360f01b6064820152608490fd5b60405162461bcd60e51b8152602060048201526024808201527f45524332303a20617070726f76652066726f6d20746865207a65726f206164646044820152637265737360e01b6064820152608490fd5b9060018060a01b0380831660005260016020526040600020908216600052602052604060002054926000198403611517575b50505050565b808410611532576115299303916113dd565b38808080611511565b60405162461bcd60e51b815260206004820152601d60248201527f45524332303a20696e73756666696369656e7420616c6c6f77616e63650000006044820152606490fd5b6001600160a01b0316801561162f576000918183528260205260408320548181106115df57817fddf252ad1be2c89b69c2b068fc378daa952ba7f163c4a11628f55a4df523b3ef926020928587528684520360408620558060025403600255604051908152a3565b60405162461bcd60e51b815260206004820152602260248201527f45524332303a206275726e20616d6f756e7420657863656564732062616c616e604482015261636560f01b6064820152608490fd5b60405162461bcd60e51b815260206004820152602160248201527f45524332303a206275726e2066726f6d20746865207a65726f206164647265736044820152607360f81b6064820152608490fd5b908160701b91808304600160701b149015171561125957565b81156116a1570490565b634e487b7160e01b600052601260045260246000fd5b9190820391821161125957565b156116cb57565b60405162461bcd60e51b815260206004820152601760248201527614db1a5c1c1859d9481b1a5b5a5d08195e18d959591959604a1b6044820152606490fd5b60026005541461171b576002600555565b60405162461bcd60e51b815260206004820152601f60248201527f5265656e7472616e637947756172643a207265656e7472616e742063616c6c006044820152606490fd5b3d1561179b573d9067ffffffffffffffff8211611236576040519161178f601f8201601f191660200184611214565b82523d6000602084013e565b606090565b156117a757565b60405162461bcd60e51b8152602060048201526013602482015272115512081d1c985b9cd9995c8819985a5b1959606a1b6044820152606490fd5b9190918215611867578115611829576117fa9061167e565b91818302918383041483151715611259576118269261181b6118209261167e565b61124c565b90611697565b90565b60405162461bcd60e51b81526020600482015260166024820152754f75747075742072657365727665206973207a65726f60501b6044820152606490fd5b60405162461bcd60e51b8152602060048201526015602482015274496e7075742072657365727665206973207a65726f60581b6044820152606490fdfea26469706673582212203e6235b5a6c85d6adfcf0a0010ce777c0ded393d7e47ad1ed99907a8236a4d8164736f6c63430008110033",
  "linkReferences": {},
  "deployedLinkReferences": {}
}